:020000040000FA
:0400000049EF00F0D4
:0600080006824BEF00F040
:100018000680D8CF03F0E8CF04F0E0CF05F0F29ED9
:10002800F0A019EF00F01BEF00F040EF00F08AB2EB
:1000380020EF00F023EF00F0010E24EF00F0000E97
:10004800FF0A026E02468A500218FD0B02188A6ED9
:100058008AB631EF00F034EF00F0010E35EF00F012
:10006800000EFF0A026E0246024602468A50021835
:10007800F70B02188A6EF090F28E05C0E0FF04C0FC
:10008800E8FF03C0D8FF069010008FEF00F0F29E43
:10009800F2A251EF00F053EF00F076EF00F08AB0D3
:1000A80058EF00F05BEF00F0010E5CEF00F0000E7F
:1000B800FF0A016E8A500118FE0B01188A6E8AB475
:1000C80068EF00F06BEF00F0010E6CEF00F0000E2F
:1000D800FF0A016E014601468A500118FB0B011800
:1000E8008A6EF292F28E069211009486948893900A
:1000F8009392939493968A908A928A948A96D08EB1
:10010800F086F09CF18AF288F18CF28EF28C8BEFFB
:1001180000F049EF00F006900692000179EF00F038
:020000040020DA
:08000000FFFFFFFFFFFFFFFF00
:020000040030CA
:0E000000FFC80D3E3C9D80FF0FC00FE00F407B
:00000001FF
